{
  "_format": "hh-sol-artifact-1",
  "contractName": "Project",
  "sourceName": "contracts/Project.sol",
  "abi": [
    {
      "inputs": [
        {
          "internalType": "uint256",
          "name": "_projectGoal",
          "type": "uint256"
        },
        {
          "internalType": "address",
          "name": "_owner",
          "type": "address"
        }
      ],
      "stateMutability": "nonpayable",
      "type": "constructor"
    },
    {
      "anonymous": false,
      "inputs": [
        {
          "indexed": true,
          "internalType": "address",
          "name": "owner",
          "type": "address"
        },
        {
          "indexed": true,
          "internalType": "address",
          "name": "approved",
          "type": "address"
        },
        {
          "indexed": true,
          "internalType": "uint256",
          "name": "tokenId",
          "type": "uint256"
        }
      ],
      "name": "Approval",
      "type": "event"
    },
    {
      "anonymous": false,
      "inputs": [
        {
          "indexed": true,
          "internalType": "address",
          "name": "owner",
          "type": "address"
        },
        {
          "indexed": true,
          "internalType": "address",
          "name": "operator",
          "type": "address"
        },
        {
          "indexed": false,
          "internalType": "bool",
          "name": "approved",
          "type": "bool"
        }
      ],
      "name": "ApprovalForAll",
      "type": "event"
    },
    {
      "anonymous": false,
      "inputs": [
        {
          "indexed": false,
          "internalType": "address",
          "name": "to",
          "type": "address"
        },
        {
          "indexed": false,
          "internalType": "uint256",
          "name": "badges",
          "type": "uint256"
        }
      ],
      "name": "BadgesIssued",
      "type": "event"
    },
    {
      "anonymous": false,
      "inputs": [
        {
          "indexed": false,
          "internalType": "address",
          "name": "contributor",
          "type": "address"
        },
        {
          "indexed": false,
          "internalType": "uint256",
          "name": "amount",
          "type": "uint256"
        }
      ],
      "name": "ContributorWithdrawal",
      "type": "event"
    },
    {
      "anonymous": false,
      "inputs": [
        {
          "indexed": false,
          "internalType": "address",
          "name": "owner",
          "type": "address"
        },
        {
          "indexed": false,
          "internalType": "uint256",
          "name": "amount",
          "type": "uint256"
        }
      ],
      "name": "CreatorWithdrawal",
      "type": "event"
    },
    {
      "anonymous": false,
      "inputs": [
        {
          "indexed": false,
          "internalType": "address",
          "name": "from",
          "type": "address"
        },
        {
          "indexed": false,
          "internalType": "uint256",
          "name": "amount",
          "type": "uint256"
        }
      ],
      "name": "NewContribution",
      "type": "event"
    },
    {
      "anonymous": false,
      "inputs": [
        {
          "indexed": false,
          "internalType": "address",
          "name": "owner",
          "type": "address"
        }
      ],
      "name": "ProjectCancelled",
      "type": "event"
    },
    {
      "anonymous": false,
      "inputs": [
        {
          "indexed": true,
          "internalType": "address",
          "name": "from",
          "type": "address"
        },
        {
          "indexed": true,
          "internalType": "address",
          "name": "to",
          "type": "address"
        },
        {
          "indexed": true,
          "internalType": "uint256",
          "name": "tokenId",
          "type": "uint256"
        }
      ],
      "name": "Transfer",
      "type": "event"
    },
    {
      "inputs": [
        {
          "internalType": "address",
          "name": "to",
          "type": "address"
        },
        {
          "internalType": "uint256",
          "name": "tokenId",
          "type": "uint256"
        }
      ],
      "name": "approve",
      "outputs": [],
      "stateMutability": "nonpayable",
      "type": "function"
    },
    {
      "inputs": [
        {
          "internalType": "address",
          "name": "owner",
          "type": "address"
        }
      ],
      "name": "balanceOf",
      "outputs": [
        {
          "internalType": "uint256",
          "name": "",
          "type": "uint256"
        }
      ],
      "stateMutability": "view",
      "type": "function"
    },
    {
      "inputs": [],
      "name": "cancelProject",
      "outputs": [],
      "stateMutability": "nonpayable",
      "type": "function"
    },
    {
      "inputs": [],
      "name": "cancelled",
      "outputs": [
        {
          "internalType": "bool",
          "name": "",
          "type": "bool"
        }
      ],
      "stateMutability": "view",
      "type": "function"
    },
    {
      "inputs": [],
      "name": "contribute",
      "outputs": [],
      "stateMutability": "payable",
      "type": "function"
    },
    {
      "inputs": [
        {
          "internalType": "uint256",
          "name": "_amount",
          "type": "uint256"
        }
      ],
      "name": "creatorWithdraw",
      "outputs": [],
      "stateMutability": "nonpayable",
      "type": "function"
    },
    {
      "inputs": [
        {
          "internalType": "uint256",
          "name": "tokenId",
          "type": "uint256"
        }
      ],
      "name": "getApproved",
      "outputs": [
        {
          "internalType": "address",
          "name": "",
          "type": "address"
        }
      ],
      "stateMutability": "view",
      "type": "function"
    },
    {
      "inputs": [
        {
          "internalType": "address",
          "name": "owner",
          "type": "address"
        },
        {
          "internalType": "address",
          "name": "operator",
          "type": "address"
        }
      ],
      "name": "isApprovedForAll",
      "outputs": [
        {
          "internalType": "bool",
          "name": "",
          "type": "bool"
        }
      ],
      "stateMutability": "view",
      "type": "function"
    },
    {
      "inputs": [],
      "name": "name",
      "outputs": [
        {
          "internalType": "string",
          "name": "",
          "type": "string"
        }
      ],
      "stateMutability": "view",
      "type": "function"
    },
    {
      "inputs": [],
      "name": "owner",
      "outputs": [
        {
          "internalType": "address",
          "name": "",
          "type": "address"
        }
      ],
      "stateMutability": "view",
      "type": "function"
    },
    {
      "inputs": [
        {
          "internalType": "uint256",
          "name": "tokenId",
          "type": "uint256"
        }
      ],
      "name": "ownerOf",
      "outputs": [
        {
          "internalType": "address",
          "name": "",
          "type": "address"
        }
      ],
      "stateMutability": "view",
      "type": "function"
    },
    {
      "inputs": [],
      "name": "projectFunds",
      "outputs": [
        {
          "internalType": "uint256",
          "name": "",
          "type": "uint256"
        }
      ],
      "stateMutability": "view",
      "type": "function"
    },
    {
      "inputs": [],
      "name": "projectGoal",
      "outputs": [
        {
          "internalType": "uint256",
          "name": "",
          "type": "uint256"
        }
      ],
      "stateMutability": "view",
      "type": "function"
    },
    {
      "inputs": [
        {
          "internalType": "address",
          "name": "from",
          "type": "address"
        },
        {
          "internalType": "address",
          "name": "to",
          "type": "address"
        },
        {
          "internalType": "uint256",
          "name": "tokenId",
          "type": "uint256"
        }
      ],
      "name": "safeTransferFrom",
      "outputs": [],
      "stateMutability": "nonpayable",
      "type": "function"
    },
    {
      "inputs": [
        {
          "internalType": "address",
          "name": "from",
          "type": "address"
        },
        {
          "internalType": "address",
          "name": "to",
          "type": "address"
        },
        {
          "internalType": "uint256",
          "name": "tokenId",
          "type": "uint256"
        },
        {
          "internalType": "bytes",
          "name": "_data",
          "type": "bytes"
        }
      ],
      "name": "safeTransferFrom",
      "outputs": [],
      "stateMutability": "nonpayable",
      "type": "function"
    },
    {
      "inputs": [
        {
          "internalType": "address",
          "name": "operator",
          "type": "address"
        },
        {
          "internalType": "bool",
          "name": "approved",
          "type": "bool"
        }
      ],
      "name": "setApprovalForAll",
      "outputs": [],
      "stateMutability": "nonpayable",
      "type": "function"
    },
    {
      "inputs": [],
      "name": "status",
      "outputs": [
        {
          "internalType": "enum Project.Status",
          "name": "",
          "type": "uint8"
        }
      ],
      "stateMutability": "view",
      "type": "function"
    },
    {
      "inputs": [
        {
          "internalType": "bytes4",
          "name": "interfaceId",
          "type": "bytes4"
        }
      ],
      "name": "supportsInterface",
      "outputs": [
        {
          "internalType": "bool",
          "name": "",
          "type": "bool"
        }
      ],
      "stateMutability": "view",
      "type": "function"
    },
    {
      "inputs": [],
      "name": "symbol",
      "outputs": [
        {
          "internalType": "string",
          "name": "",
          "type": "string"
        }
      ],
      "stateMutability": "view",
      "type": "function"
    },
    {
      "inputs": [
        {
          "internalType": "uint256",
          "name": "tokenId",
          "type": "uint256"
        }
      ],
      "name": "tokenURI",
      "outputs": [
        {
          "internalType": "string",
          "name": "",
          "type": "string"
        }
      ],
      "stateMutability": "view",
      "type": "function"
    },
    {
      "inputs": [
        {
          "internalType": "address",
          "name": "from",
          "type": "address"
        },
        {
          "internalType": "address",
          "name": "to",
          "type": "address"
        },
        {
          "internalType": "uint256",
          "name": "tokenId",
          "type": "uint256"
        }
      ],
      "name": "transferFrom",
      "outputs": [],
      "stateMutability": "nonpayable",
      "type": "function"
    },
    {
      "inputs": [],
      "name": "withdraw",
      "outputs": [],
      "stateMutability": "nonpayable",
      "type": "function"
    }
  ],
  "bytecode": "0x60806040523480156200001157600080fd5b5060405162003b8c38038062003b8c83398181016040528101906200003791906200021c565b6040518060400160405280600e81526020017f4b69636b737461727442616467650000000000000000000000000000000000008152506040518060400160405280600481526020017f4b49434b000000000000000000000000000000000000000000000000000000008152508160009080519060200190620000bb9291906200013e565b508060019080519060200190620000d49291906200013e565b5050508160078190555080600660006101000a81548173ffffffffffffffffffffffffffffffffffffffff021916908373ffffffffffffffffffffffffffffffffffffffff16021790555062278d00426200013091906200025d565b6009819055505050620003c0565b8280546200014c90620002f8565b90600052602060002090601f016020900481019282620001705760008555620001bc565b82601f106200018b57805160ff1916838001178555620001bc565b82800160010185558215620001bc579182015b82811115620001bb5782518255916020019190600101906200019e565b5b509050620001cb9190620001cf565b5090565b5b80821115620001ea576000816000905550600101620001d0565b5090565b600081519050620001ff816200038c565b92915050565b6000815190506200021681620003a6565b92915050565b600080604083850312156200023057600080fd5b6000620002408582860162000205565b92505060206200025385828601620001ee565b9150509250929050565b60006200026a82620002ee565b91506200027783620002ee565b9250827fffffffffffffffffffffffffffffffffffffffffffffffffffffffffffffffff03821115620002af57620002ae6200032e565b5b828201905092915050565b6000620002c782620002ce565b9050919050565b600073ffffffffffffffffffffffffffffffffffffffff82169050919050565b6000819050919050565b600060028204905060018216806200031157607f821691505b602082108114156200032857620003276200035d565b5b50919050565b7f4e487b7100000000000000000000000000000000000000000000000000000000600052601160045260246000fd5b7f4e487b7100000000000000000000000000000000000000000000000000000000600052602260045260246000fd5b6200039781620002ba565b8114620003a357600080fd5b50565b620003b181620002ee565b8114620003bd57600080fd5b50565b6137bc80620003d06000396000f3fe6080604052600436106101355760003560e01c806370a08231116100ab578063a22cb4651161006f578063a22cb46514610402578063b88d4fde1461042b578063c87b56dd14610454578063d7bb99ba14610491578063e41423151461049b578063e985e9c5146104c657610135565b806370a082311461031b57806371eb89f3146103585780638da5cb5b1461038157806395d89b41146103ac5780639a82a09a146103d757610135565b80631dda538d116100fd5780631dda538d1461021f578063200d2ed21461024a57806323b872dd146102755780633ccfd60b1461029e57806342842e0e146102b55780636352211e146102de57610135565b806301ffc9a71461013a57806306fdde0314610177578063081812fc146101a2578063095ea7b3146101df5780631adff0ee14610208575b600080fd5b34801561014657600080fd5b50610161600480360381019061015c91906124a5565b610503565b60405161016e9190612a10565b60405180910390f35b34801561018357600080fd5b5061018c6105e5565b6040516101999190612a46565b60405180910390f35b3480156101ae57600080fd5b506101c960048036038101906101c491906124f7565b610677565b6040516101d69190612980565b60405180910390f35b3480156101eb57600080fd5b5061020660048036038101906102019190612469565b6106fc565b005b34801561021457600080fd5b5061021d610814565b005b34801561022b57600080fd5b5061023461096a565b6040516102419190612d48565b60405180910390f35b34801561025657600080fd5b5061025f610970565b60405161026c9190612a2b565b60405180910390f35b34801561028157600080fd5b5061029c60048036038101906102979190612363565b6109b9565b005b3480156102aa57600080fd5b506102b3610a19565b005b3480156102c157600080fd5b506102dc60048036038101906102d79190612363565b610ca0565b005b3480156102ea57600080fd5b50610305600480360381019061030091906124f7565b610cc0565b6040516103129190612980565b60405180910390f35b34801561032757600080fd5b50610342600480360381019061033d91906122fe565b610d72565b60405161034f9190612d48565b60405180910390f35b34801561036457600080fd5b5061037f600480360381019061037a91906124f7565b610e2a565b005b34801561038d57600080fd5b506103966110a2565b6040516103a39190612980565b60405180910390f35b3480156103b857600080fd5b506103c16110c8565b6040516103ce9190612a46565b60405180910390f35b3480156103e357600080fd5b506103ec61115a565b6040516103f99190612a10565b60405180910390f35b34801561040e57600080fd5b506104296004803603810190610424919061242d565b61116d565b005b34801561043757600080fd5b50610452600480360381019061044d91906123b2565b611183565b005b34801561046057600080fd5b5061047b600480360381019061047691906124f7565b6111e5565b6040516104889190612a46565b60405180910390f35b61049961128c565b005b3480156104a757600080fd5b506104b0611546565b6040516104bd9190612d48565b60405180910390f35b3480156104d257600080fd5b506104ed60048036038101906104e89190612327565b61154c565b6040516104fa9190612a10565b60405180910390f35b60007f80ac58cd000000000000000000000000000000000000000000000000000000007bffffffffffffffffffffffffffffffffffffffffffffffffffffffff1916827bffffffffffffffffffffffffffffffffffffffffffffffffffffffff191614806105ce57507f5b5e139f000000000000000000000000000000000000000000000000000000007bffffffffffffffffffffffffffffffffffffffffffffffffffffffff1916827bffffffffffffffffffffffffffffffffffffffffffffffffffffffff1916145b806105de57506105dd826115e0565b5b9050919050565b6060600080546105f490612f9d565b80601f016020809104026020016040519081016040528092919081815260200182805461062090612f9d565b801561066d5780601f106106425761010080835404028352916020019161066d565b820191906000526020600020905b81548152906001019060200180831161065057829003601f168201915b5050505050905090565b60006106828261164a565b6106c1576040517f08c379a00000000000000000000000000000000000000000000000000000000081526004016106b890612be8565b60405180910390fd5b6004600083815260200190815260200160002060009054906101000a900473ffffffffffffffffffffffffffffffffffffffff169050919050565b600061070782610cc0565b90508073ffffffffffffffffffffffffffffffffffffffff168373ffffffffffffffffffffffffffffffffffffffff161415610778576040517f08c379a000000000000000000000000000000000000000000000000000000000815260040161076f90612c88565b60405180910390fd5b8073ffffffffffffffffffffffffffffffffffffffff166107976116b6565b73ffffffffffffffffffffffffffffffffffffffff1614806107c657506107c5816107c06116b6565b61154c565b5b610805576040517f08c379a00000000000000000000000000000000000000000000000000000000081526004016107fc90612b28565b60405180910390fd5b61080f83836116be565b505050565b600660009054906101000a900473ffffffffffffffffffffffffffffffffffffffff1673ffffffffffffffffffffffffffffffffffffffff163373ffffffffffffffffffffffffffffffffffffffff16146108a4576040517f08c379a000000000000000000000000000000000000000000000000000000000815260040161089b90612ba8565b60405180910390fd5b600d60009054906101000a900460ff16156108f4576040517f08c379a00000000000000000000000000000000000000000000000000000000081526004016108eb90612d28565b60405180910390fd5b6001600d60006101000a81548160ff0219169083151502179055507ff7482c0dd1aa942cd03bf4a20b7130919c4b5282a6fd05a464a262dd04ee0517600660009054906101000a900473ffffffffffffffffffffffffffffffffffffffff166040516109609190612980565b60405180910390a1565b60075481565b60006007546008541061098657600190506109b6565b600d60009054906101000a900460ff16806109a357506009544210155b156109b157600290506109b6565b600090505b90565b6109ca6109c46116b6565b82611777565b610a09576040517f08c379a0000000000000000000000000000000000000000000000000000000008152600401610a0090612ce8565b60405180910390fd5b610a14838383611855565b505050565b600280811115610a52577f4e487b7100000000000000000000000000000000000000000000000000000000600052602160045260246000fd5b610a5a610970565b6002811115610a92577f4e487b7100000000000000000000000000000000000000000000000000000000600052602160045260246000fd5b14610ad2576040517f08c379a0000000000000000000000000000000000000000000000000000000008152600401610ac990612c68565b60405180910390fd5b6000600b60003373ffffffffffffffffffffffffffffffffffffffff1673ffffffffffffffffffffffffffffffffffffffff16815260200190815260200160002054905060008111610b59576040517f08c379a0000000000000000000000000000000000000000000000000000000008152600401610b5090612b88565b60405180910390fd5b8060086000828254610b6b9190612e8e565b925050819055506000600b60003373ffffffffffffffffffffffffffffffffffffffff1673ffffffffffffffffffffffffffffffffffffffff1681526020019081526020016000208190555060003373ffffffffffffffffffffffffffffffffffffffff1682604051610bdd9061296b565b60006040518083038185875af1925050503d8060008114610c1a576040519150601f19603f3d011682016040523d82523d6000602084013e610c1f565b606091505b5050905080610c63576040517f08c379a0000000000000000000000000000000000000000000000000000000008152600401610c5a90612cc8565b60405180910390fd5b7f9492d713b8c35ff9c308df3d4129ef8bb79872fd20149e66dd2ba94fdf18f75d3383604051610c949291906129e7565b60405180910390a15050565b610cbb83838360405180602001604052806000815250611183565b505050565b6000806002600084815260200190815260200160002060009054906101000a900473ffffffffffffffffffffffffffffffffffffffff169050600073ffffffffffffffffffffffffffffffffffffffff168173ffffffffffffffffffffffffffffffffffffffff161415610d69576040517f08c379a0000000000000000000000000000000000000000000000000000000008152600401610d6090612b68565b60405180910390fd5b80915050919050565b60008073ffffffffffffffffffffffffffffffffffffffff168273ffffffffffffffffffffffffffffffffffffffff161415610de3576040517f08c379a0000000000000000000000000000000000000000000000000000000008152600401610dda90612b48565b60405180910390fd5b600360008373ffffffffffffffffffffffffffffffffffffffff1673ffffffffffffffffffffffffffffffffffffffff168152602001908152602001600020549050919050565b600660009054906101000a900473ffffffffffffffffffffffffffffffffffffffff1673ffffffffffffffffffffffffffffffffffffffff163373ffffffffffffffffffffffffffffffffffffffff1614610eba576040517f08c379a0000000000000000000000000000000000000000000000000000000008152600401610eb190612ba8565b60405180910390fd5b60016002811115610ef4577f4e487b7100000000000000000000000000000000000000000000000000000000600052602160045260246000fd5b610efc610970565b6002811115610f34577f4e487b7100000000000000000000000000000000000000000000000000000000600052602160045260246000fd5b14610f74576040517f08c379a0000000000000000000000000000000000000000000000000000000008152600401610f6b90612c48565b60405180910390fd5b600854811115610fb9576040517f08c379a0000000000000000000000000000000000000000000000000000000008152600401610fb090612ca8565b60405180910390fd5b60003373ffffffffffffffffffffffffffffffffffffffff1682604051610fdf9061296b565b60006040518083038185875af1925050503d806000811461101c576040519150601f19603f3d011682016040523d82523d6000602084013e611021565b606091505b5050905080611065576040517f08c379a000000000000000000000000000000000000000000000000000000000815260040161105c90612cc8565b60405180910390fd5b7f0d53b74a6cb6d1fbd9dc6dc1d7714036c7c6a3f48350103a7011041eb32a4c5e33836040516110969291906129e7565b60405180910390a15050565b600660009054906101000a900473ffffffffffffffffffffffffffffffffffffffff1681565b6060600180546110d790612f9d565b80601f016020809104026020016040519081016040528092919081815260200182805461110390612f9d565b80156111505780601f1061112557610100808354040283529160200191611150565b820191906000526020600020905b81548152906001019060200180831161113357829003601f168201915b5050505050905090565b600d60009054906101000a900460ff1681565b61117f6111786116b6565b8383611abc565b5050565b61119461118e6116b6565b83611777565b6111d3576040517f08c379a00000000000000000000000000000000000000000000000000000000081526004016111ca90612ce8565b60405180910390fd5b6111df84848484611c29565b50505050565b60606111f08261164a565b61122f576040517f08c379a000000000000000000000000000000000000000000000000000000000815260040161122690612c28565b60405180910390fd5b6000611239611c85565b905060008151116112595760405180602001604052806000815250611284565b8061126384611c9c565b604051602001611274929190612947565b6040516020818303038152906040525b915050919050565b662386f26fc100003410156112d6576040517f08c379a00000000000000000000000000000000000000000000000000000000081526004016112cd90612d08565b60405180910390fd5b60006002811115611310577f4e487b7100000000000000000000000000000000000000000000000000000000600052602160045260246000fd5b611318610970565b6002811115611350577f4e487b7100000000000000000000000000000000000000000000000000000000600052602160045260246000fd5b14611390576040517f08c379a000000000000000000000000000000000000000000000000000000000815260040161138790612c08565b60405180910390fd5b34600b60003373ffffffffffffffffffffffffffffffffffffffff1673ffffffffffffffffffffffffffffffffffffffff16815260200190815260200160002060008282546113df9190612e07565b9250508190555034600860008282546113f89190612e07565b92505081905550600034600c60003373ffffffffffffffffffffffffffffffffffffffff1673ffffffffffffffffffffffffffffffffffffffff1681526020019081526020016000205461144c9190612e07565b90506000670de0b6b3a7640000826114649190612e5d565b9050670de0b6b3a76400008261147a9190613049565b600c60003373ffffffffffffffffffffffffffffffffffffffff1673ffffffffffffffffffffffffffffffffffffffff1681526020019081526020016000208190555060008111156114d0576114cf81611e49565b5b7fbdaa686eb6f59012d211a74523da260341c516896e9e5be954163d6ecf26ffa233346040516115019291906129e7565b60405180910390a17f1c4bb1c7ea3eae99a7657c1508cd44f7604ec2edd881d99f804ae8f5779e9582338260405161153a9291906129e7565b60405180910390a15050565b60085481565b6000600560008473ffffffffffffffffffffffffffffffffffffffff1673ffffffffffffffffffffffffffffffffffffffff16815260200190815260200160002060008373ffffffffffffffffffffffffffffffffffffffff1673ffffffffffffffffffffffffffffffffffffffff16815260200190815260200160002060009054906101000a900460ff16905092915050565b60007f01ffc9a7000000000000000000000000000000000000000000000000000000007bffffffffffffffffffffffffffffffffffffffffffffffffffffffff1916827bffffffffffffffffffffffffffffffffffffffffffffffffffffffff1916149050919050565b60008073ffffffffffffffffffffffffffffffffffffffff166002600084815260200190815260200160002060009054906101000a900473ffffffffffffffffffffffffffffffffffffffff1673ffffffffffffffffffffffffffffffffffffffff1614159050919050565b600033905090565b816004600083815260200190815260200160002060006101000a81548173ffffffffffffffffffffffffffffffffffffffff021916908373ffffffffffffffffffffffffffffffffffffffff160217905550808273ffffffffffffffffffffffffffffffffffffffff1661173183610cc0565b73ffffffffffffffffffffffffffffffffffffffff167f8c5be1e5ebec7d5bd14f71427d1e84f3dd0314c0f7b2291e5b200ac8c7c3b92560405160405180910390a45050565b60006117828261164a565b6117c1576040517f08c379a00000000000000000000000000000000000000000000000000000000081526004016117b890612b08565b60405180910390fd5b60006117cc83610cc0565b90508073ffffffffffffffffffffffffffffffffffffffff168473ffffffffffffffffffffffffffffffffffffffff16148061183b57508373ffffffffffffffffffffffffffffffffffffffff1661182384610677565b73ffffffffffffffffffffffffffffffffffffffff16145b8061184c575061184b818561154c565b5b91505092915050565b8273ffffffffffffffffffffffffffffffffffffffff1661187582610cc0565b73ffffffffffffffffffffffffffffffffffffffff16146118cb576040517f08c379a00000000000000000000000000000000000000000000000000000000081526004016118c290612a88565b60405180910390fd5b600073ffffffffffffffffffffffffffffffffffffffff168273ffffffffffffffffffffffffffffffffffffffff16141561193b576040517f08c379a000000000000000000000000000000000000000000000000000000000815260040161193290612ac8565b60405180910390fd5b611946838383611e8f565b6119516000826116be565b6001600360008573ffffffffffffffffffffffffffffffffffffffff1673ffffffffffffffffffffffffffffffffffffffff16815260200190815260200160002060008282546119a19190612e8e565b925050819055506001600360008473ffffffffffffffffffffffffffffffffffffffff1673ffffffffffffffffffffffffffffffffffffffff16815260200190815260200160002060008282546119f89190612e07565b92505081905550816002600083815260200190815260200160002060006101000a81548173ffffffffffffffffffffffffffffffffffffffff021916908373ffffffffffffffffffffffffffffffffffffffff160217905550808273ffffffffffffffffffffffffffffffffffffffff168473ffffffffffffffffffffffffffffffffffffffff167fddf252ad1be2c89b69c2b068fc378daa952ba7f163c4a11628f55a4df523b3ef60405160405180910390a4611ab7838383611e94565b505050565b8173ffffffffffffffffffffffffffffffffffffffff168373ffffffffffffffffffffffffffffffffffffffff161415611b2b576040517f08c379a0000000000000000000000000000000000000000000000000000000008152600401611b2290612ae8565b60405180910390fd5b80600560008573ffffffffffffffffffffffffffffffffffffffff1673ffffffffffffffffffffffffffffffffffffffff16815260200190815260200160002060008473ffffffffffffffffffffffffffffffffffffffff1673ffffffffffffffffffffffffffffffffffffffff16815260200190815260200160002060006101000a81548160ff0219169083151502179055508173ffffffffffffffffffffffffffffffffffffffff168373ffffffffffffffffffffffffffffffffffffffff167f17307eab39ab6107e8899845ad3d59bd9653f200f220920489ca2b5937696c3183604051611c1c9190612a10565b60405180910390a3505050565b611c34848484611855565b611c4084848484611e99565b611c7f576040517f08c379a0000000000000000000000000000000000000000000000000000000008152600401611c7690612a68565b60405180910390fd5b50505050565b606060405180602001604052806000815250905090565b60606000821415611ce4576040518060400160405280600181526020017f30000000000000000000000000000000000000000000000000000000000000008152509050611e44565b600082905060005b60008214611d16578080611cff90613000565b915050600a82611d0f9190612e5d565b9150611cec565b60008167ffffffffffffffff811115611d58577f4e487b7100000000000000000000000000000000000000000000000000000000600052604160045260246000fd5b6040519080825280601f01601f191660200182016040528015611d8a5781602001600182028036833780820191505090505b5090505b60008514611e3d57600182611da39190612e8e565b9150600a85611db29190613049565b6030611dbe9190612e07565b60f81b818381518110611dfa577f4e487b7100000000000000000000000000000000000000000000000000000000600052603260045260246000fd5b60200101907effffffffffffffffffffffffffffffffffffffffffffffffffffffffffffff1916908160001a905350600a85611e369190612e5d565b9450611d8e565b8093505050505b919050565b60005b81811015611e8b57600a6000815480929190611e6790613000565b9190505550611e7833600a54612030565b8080611e8390613000565b915050611e4c565b5050565b505050565b505050565b6000611eba8473ffffffffffffffffffffffffffffffffffffffff1661220a565b15612023578373ffffffffffffffffffffffffffffffffffffffff1663150b7a02611ee36116b6565b8786866040518563ffffffff1660e01b8152600401611f05949392919061299b565b602060405180830381600087803b158015611f1f57600080fd5b505af1925050508015611f5057506040513d601f19601f82011682018060405250810190611f4d91906124ce565b60015b611fd3573d8060008114611f80576040519150601f19603f3d011682016040523d82523d6000602084013e611f85565b606091505b50600081511415611fcb576040517f08c379a0000000000000000000000000000000000000000000000000000000008152600401611fc290612a68565b60405180910390fd5b805181602001fd5b63150b7a0260e01b7bffffffffffffffffffffffffffffffffffffffffffffffffffffffff1916817bffffffffffffffffffffffffffffffffffffffffffffffffffffffff191614915050612028565b600190505b949350505050565b600073ffffffffffffffffffffffffffffffffffffffff168273ffffffffffffffffffffffffffffffffffffffff1614156120a0576040517f08c379a000000000000000000000000000000000000000000000000000000000815260040161209790612bc8565b60405180910390fd5b6120a98161164a565b156120e9576040517f08c379a00000000000000000000000000000000000000000000000000000000081526004016120e090612aa8565b60405180910390fd5b6120f560008383611e8f565b6001600360008473ffffffffffffffffffffffffffffffffffffffff1673ffffffffffffffffffffffffffffffffffffffff16815260200190815260200160002060008282546121459190612e07565b92505081905550816002600083815260200190815260200160002060006101000a81548173ffffffffffffffffffffffffffffffffffffffff021916908373ffffffffffffffffffffffffffffffffffffffff160217905550808273ffffffffffffffffffffffffffffffffffffffff16600073ffffffffffffffffffffffffffffffffffffffff167fddf252ad1be2c89b69c2b068fc378daa952ba7f163c4a11628f55a4df523b3ef60405160405180910390a461220660008383611e94565b5050565b6000808273ffffffffffffffffffffffffffffffffffffffff163b119050919050565b600061224061223b84612d88565b612d63565b90508281526020810184848401111561225857600080fd5b612263848285612f5b565b509392505050565b60008135905061227a8161372a565b92915050565b60008135905061228f81613741565b92915050565b6000813590506122a481613758565b92915050565b6000815190506122b981613758565b92915050565b600082601f8301126122d057600080fd5b81356122e084826020860161222d565b91505092915050565b6000813590506122f88161376f565b92915050565b60006020828403121561231057600080fd5b600061231e8482850161226b565b91505092915050565b6000806040838503121561233a57600080fd5b60006123488582860161226b565b92505060206123598582860161226b565b9150509250929050565b60008060006060848603121561237857600080fd5b60006123868682870161226b565b93505060206123978682870161226b565b92505060406123a8868287016122e9565b9150509250925092565b600080600080608085870312156123c857600080fd5b60006123d68782880161226b565b94505060206123e78782880161226b565b93505060406123f8878288016122e9565b925050606085013567ffffffffffffffff81111561241557600080fd5b612421878288016122bf565b91505092959194509250565b6000806040838503121561244057600080fd5b600061244e8582860161226b565b925050602061245f85828601612280565b9150509250929050565b6000806040838503121561247c57600080fd5b600061248a8582860161226b565b925050602061249b858286016122e9565b9150509250929050565b6000602082840312156124b757600080fd5b60006124c584828501612295565b91505092915050565b6000602082840312156124e057600080fd5b60006124ee848285016122aa565b91505092915050565b60006020828403121561250957600080fd5b6000612517848285016122e9565b91505092915050565b61252981612ec2565b82525050565b61253881612ed4565b82525050565b600061254982612db9565b6125538185612dcf565b9350612563818560208601612f6a565b61256c81613165565b840191505092915050565b61258081612f49565b82525050565b600061259182612dc4565b61259b8185612deb565b93506125ab818560208601612f6a565b6125b481613165565b840191505092915050565b60006125ca82612dc4565b6125d48185612dfc565b93506125e4818560208601612f6a565b80840191505092915050565b60006125fd603283612deb565b915061260882613176565b604082019050919050565b6000612620602583612deb565b915061262b826131c5565b604082019050919050565b6000612643601c83612deb565b915061264e82613214565b602082019050919050565b6000612666602483612deb565b91506126718261323d565b604082019050919050565b6000612689601983612deb565b91506126948261328c565b602082019050919050565b60006126ac602c83612deb565b91506126b7826132b5565b604082019050919050565b60006126cf603883612deb565b91506126da82613304565b604082019050919050565b60006126f2602a83612deb565b91506126fd82613353565b604082019050919050565b6000612715602983612deb565b9150612720826133a2565b604082019050919050565b6000612738601d83612deb565b9150612743826133f1565b602082019050919050565b600061275b600d83612deb565b91506127668261341a565b602082019050919050565b600061277e602083612deb565b915061278982613443565b602082019050919050565b60006127a1602c83612deb565b91506127ac8261346c565b604082019050919050565b60006127c4603183612deb565b91506127cf826134bb565b604082019050919050565b60006127e7602f83612deb565b91506127f28261350a565b604082019050919050565b600061280a602083612deb565b915061281582613559565b602082019050919050565b600061282d601c83612deb565b915061283882613582565b602082019050919050565b6000612850602183612deb565b915061285b826135ab565b604082019050919050565b6000612873601283612deb565b915061287e826135fa565b602082019050919050565b6000612896600083612de0565b91506128a182613623565b600082019050919050565b60006128b9601083612deb565b91506128c482613626565b602082019050919050565b60006128dc603183612deb565b91506128e78261364f565b604082019050919050565b60006128ff602783612deb565b915061290a8261369e565b604082019050919050565b6000612922601c83612deb565b915061292d826136ed565b602082019050919050565b61294181612f3f565b82525050565b600061295382856125bf565b915061295f82846125bf565b91508190509392505050565b600061297682612889565b9150819050919050565b60006020820190506129956000830184612520565b92915050565b60006080820190506129b06000830187612520565b6129bd6020830186612520565b6129ca6040830185612938565b81810360608301526129dc818461253e565b905095945050505050565b60006040820190506129fc6000830185612520565b612a096020830184612938565b9392505050565b6000602082019050612a25600083018461252f565b92915050565b6000602082019050612a406000830184612577565b92915050565b60006020820190508181036000830152612a608184612586565b905092915050565b60006020820190508181036000830152612a81816125f0565b9050919050565b60006020820190508181036000830152612aa181612613565b9050919050565b60006020820190508181036000830152612ac181612636565b9050919050565b60006020820190508181036000830152612ae181612659565b9050919050565b60006020820190508181036000830152612b018161267c565b9050919050565b60006020820190508181036000830152612b218161269f565b9050919050565b60006020820190508181036000830152612b41816126c2565b9050919050565b60006020820190508181036000830152612b61816126e5565b9050919050565b60006020820190508181036000830152612b8181612708565b9050919050565b60006020820190508181036000830152612ba18161272b565b9050919050565b60006020820190508181036000830152612bc18161274e565b9050919050565b60006020820190508181036000830152612be181612771565b9050919050565b60006020820190508181036000830152612c0181612794565b9050919050565b60006020820190508181036000830152612c21816127b7565b9050919050565b60006020820190508181036000830152612c41816127da565b9050919050565b60006020820190508181036000830152612c61816127fd565b9050919050565b60006020820190508181036000830152612c8181612820565b9050919050565b60006020820190508181036000830152612ca181612843565b9050919050565b60006020820190508181036000830152612cc181612866565b9050919050565b60006020820190508181036000830152612ce1816128ac565b9050919050565b60006020820190508181036000830152612d01816128cf565b9050919050565b60006020820190508181036000830152612d21816128f2565b9050919050565b60006020820190508181036000830152612d4181612915565b9050919050565b6000602082019050612d5d6000830184612938565b92915050565b6000612d6d612d7e565b9050612d798282612fcf565b919050565b6000604051905090565b600067ffffffffffffffff821115612da357612da2613136565b5b612dac82613165565b9050602081019050919050565b600081519050919050565b600081519050919050565b600082825260208201905092915050565b600081905092915050565b600082825260208201905092915050565b600081905092915050565b6000612e1282612f3f565b9150612e1d83612f3f565b9250827fffffffffffffffffffffffffffffffffffffffffffffffffffffffffffffffff03821115612e5257612e5161307a565b5b828201905092915050565b6000612e6882612f3f565b9150612e7383612f3f565b925082612e8357612e826130a9565b5b828204905092915050565b6000612e9982612f3f565b9150612ea483612f3f565b925082821015612eb757612eb661307a565b5b828203905092915050565b6000612ecd82612f1f565b9050919050565b60008115159050919050565b60007fffffffff0000000000000000000000000000000000000000000000000000000082169050919050565b6000819050612f1a82613716565b919050565b600073ffffffffffffffffffffffffffffffffffffffff82169050919050565b6000819050919050565b6000612f5482612f0c565b9050919050565b82818337600083830152505050565b60005b83811015612f88578082015181840152602081019050612f6d565b83811115612f97576000848401525b50505050565b60006002820490506001821680612fb557607f821691505b60208210811415612fc957612fc8613107565b5b50919050565b612fd882613165565b810181811067ffffffffffffffff82111715612ff757612ff6613136565b5b80604052505050565b600061300b82612f3f565b91507fffffffffffffffffffffffffffffffffffffffffffffffffffffffffffffffff82141561303e5761303d61307a565b5b600182019050919050565b600061305482612f3f565b915061305f83612f3f565b92508261306f5761306e6130a9565b5b828206905092915050565b7f4e487b7100000000000000000000000000000000000000000000000000000000600052601160045260246000fd5b7f4e487b7100000000000000000000000000000000000000000000000000000000600052601260045260246000fd5b7f4e487b7100000000000000000000000000000000000000000000000000000000600052602160045260246000fd5b7f4e487b7100000000000000000000000000000000000000000000000000000000600052602260045260246000fd5b7f4e487b7100000000000000000000000000000000000000000000000000000000600052604160045260246000fd5b6000601f19601f8301169050919050565b7f4552433732313a207472616e7366657220746f206e6f6e20455243373231526560008201527f63656976657220696d706c656d656e7465720000000000000000000000000000602082015250565b7f4552433732313a207472616e736665722066726f6d20696e636f72726563742060008201527f6f776e6572000000000000000000000000000000000000000000000000000000602082015250565b7f4552433732313a20746f6b656e20616c7265616479206d696e74656400000000600082015250565b7f4552433732313a207472616e7366657220746f20746865207a65726f2061646460008201527f7265737300000000000000000000000000000000000000000000000000000000602082015250565b7f4552433732313a20617070726f766520746f2063616c6c657200000000000000600082015250565b7f4552433732313a206f70657261746f7220717565727920666f72206e6f6e657860008201527f697374656e7420746f6b656e0000000000000000000000000000000000000000602082015250565b7f4552433732313a20617070726f76652063616c6c6572206973206e6f74206f7760008201527f6e6572206e6f7220617070726f76656420666f7220616c6c0000000000000000602082015250565b7f4552433732313a2062616c616e636520717565727920666f7220746865207a6560008201527f726f206164647265737300000000000000000000000000000000000000000000602082015250565b7f4552433732313a206f776e657220717565727920666f72206e6f6e657869737460008201527f656e7420746f6b656e0000000000000000000000000000000000000000000000602082015250565b7f506c6561736520636f6e747269627574652066756e6473206669727374000000600082015250565b7f4d757374206265206f776e657200000000000000000000000000000000000000600082015250565b7f4552433732313a206d696e7420746f20746865207a65726f2061646472657373600082015250565b7f4552433732313a20617070726f76656420717565727920666f72206e6f6e657860008201527f697374656e7420746f6b656e0000000000000000000000000000000000000000602082015250565b7f546869732070726f6a656374206973206e6f206c6f6e6765722061636365707460008201527f696e6720636f6e747269627574696f6e73000000000000000000000000000000602082015250565b7f4552433732314d657461646174613a2055524920717565727920666f72206e6f60008201527f6e6578697374656e7420746f6b656e0000000000000000000000000000000000602082015250565b7f546869732070726f6a656374206973206e6f742066756c6c792066756e646564600082015250565b7f546869732070726f6a656374206973207374696c6c2061637469766500000000600082015250565b7f4552433732313a20617070726f76616c20746f2063757272656e74206f776e6560008201527f7200000000000000000000000000000000000000000000000000000000000000602082015250565b7f496e737566666963656e7420616d6f756e740000000000000000000000000000600082015250565b50565b7f5472616e73666572206661696c65642e00000000000000000000000000000000600082015250565b7f4552433732313a207472616e736665722063616c6c6572206973206e6f74206f60008201527f776e6572206e6f7220617070726f766564000000000000000000000000000000602082015250565b7f506c65617365206465706f73697420746865206d696e696d756d20636f6e747260008201527f69627574696f6e00000000000000000000000000000000000000000000000000602082015250565b7f50726f6a65637420697320616c72656164792063616e63656c6c656400000000600082015250565b60038110613727576137266130d8565b5b50565b61373381612ec2565b811461373e57600080fd5b50565b61374a81612ed4565b811461375557600080fd5b50565b61376181612ee0565b811461376c57600080fd5b50565b61377881612f3f565b811461378357600080fd5b5056fea26469706673582212208c966b6105be058b3dbb39b9a662521216091f052d2e3c362d4a56a3c6781c1364736f6c63430008040033",
  "linkReferences": {},
  "deployedLinkReferences": {}
}